:020000040800F2
:10000000A01900209D010008DB26000893230008AA
:10001000D9260008DD0700088F2B0008000000002B
:10002000000000000000000000000000DF260008C3
:100030009108000800000000DD260008CD27000818
:10004000B7010008B7010008B7010008B7010008B0
:10005000B7010008B7010008B7010008B7010008A0
:10006000B7010008B7010008B7010008B701000890
:10007000B7010008B7010008B7010008B701000880
:10008000B7010008B7010008B7010008B701000870
:10009000B7010008B7010008B7010008B701000860
:1000A00075280008992800088D2800088128000874
:1000B000A5280008B1280008B7010008B70100080A
:1000C000B7010008B7010008B7010008B701000830
:1000D000B7010008B7010008B7010008B701000820
:1000E000B7010008B7010008B7010008B701000810
:1000F000B7010008B7010008B7010008B701000800
:10010000B7010008B7010008B7010008B7010008EF
:10011000B7010008B7010008B7010008B7010008DF
:10012000E1070008B7010008B7010008B70100089F
:10013000B7010008B7010008B7010008B7010008BF
:10014000B7010008B7010008B7010008B7010008AF
:10015000B7010008B7010008B7010008B70100089F
:10016000B7010008B7010008B7010008B70100088F
:10017000B7010008B7010008B7010008000000003F
:10018000B7010008B7010008DFF80CD000F0D8F97B
:100190000048004739320008A0190020064880476F
:1001A00006480047FEE7FEE7FEE7FEE7FEE7FEE75C
:1001B000FEE7FEE7FEE7FEE7652800088901000884
:1001C000B5EEC00AF1EE10FA07D2DFED1E0AB4EE6A
:1001D000E00AF1EE10FAA8BF7047DFED1B0AB5EE9A
:1001E000C00A60EE200ABDEEE01A11EE100AF1EE30
:1001F00010FA38BF401E00EE100A1549F7EE001A3B
:10020000B8EEC00A30EEC00ADFED100A60EE200A38
:10021000BCEEE00A10EE100AC0F3080000EE100A6F
:1002200001EB8000B8EE400A90ED011A70EEC00AB2
:1002300090ED000A71EEE01A21EE800A00EE810ACC
:1002400070470000CD024CB483F9223E0000004408
:10025000A83200082DE9F05F0546002092469B4633
:1002600088460646814640241BE0284641464746CC
:10027000224600F070F853465A46C01A914110D3F6
:1002800011461846224600F057F82D1A67EB010870
:100290004F4622460120002100F04EF817EB0009DE
:1002A0004E41201EA4F10104DFDC484631462A46B7
:1002B0004346BDE8F09FD2B201E000F8012B491E91
:1002C000FBD270470022F6E710B513460A460446F3
:1002D0001946FFF7F0FF204610BD00F0004230F055
:1002E00000400AD0C10D01F56071C0F3160042EA6A
:1002F0000151C20840071143704700200146704772
:1003000001F0004330B421F0004150EA010206D070
:100310000A0DA2F56072C1F31301002A02DC30BCA1
:1003200000207047440F44EAC104C100E01830BC0B
:1003300000EBC25000F01FB8202A04DB203A00FA7C
:1003400002F1002070479140C2F1200320FA03F32C
:10035000194390407047202A04DB203A21FA02F02A
:100360000021704721FA02F3D040C2F120029140EF
:100370000843194670470029A8BF7047401C490030
:1003800008BF20F00100704710B4B0FA80FC00FAFA
:100390000CF050EA010404BF10BC704749B1CCF125
:1003A000200421FA04F411FA0CF118BF01212143B1
:1003B0000843A3EB0C01CB1D4FEA00614FEA10206C
:1003C00042BF002010BC704700EBC350104400290E
:1003D000A4BF10BC7047401C490008BF20F00100BA
:1003E00010BC704710B5141E73F1000408DA401CED
:1003F00041F1000192185B411A4301D120F0010044
:1004000010BD2DE9F04D92469B4611B1B1FA81F233
:1004100002E0B0FA80F220329046FFF78DFF0446EA
:100420000F4640EA0A0041EA0B0153465A46084388
:1004300013D0114653EA010019D0C8F140025046CA
:10044000FFF789FF05460E46504659464246FFF7DC
:1004500073FF084305D0012004E020463946BDE87B
:10046000F08D0020054346EAE0762C4337430A9896
:100470006305E40AA0EB08000022FD0A44EA4754A1
:100480000A3002D500200146E9E70105101969414B
:10049000DDE9084500196941BDE8F04DA2E72DE905
:1004A000F04D00231A461B1A8A4103DB0020014647
:1004B000BDE8F08DC1F30A52C1F3130141F4801578
:1004C0004FF0000BD10702D100186D41521E0027DA
:1004D000044640F2FF11384601EB620A3E46804670
:1004E000024600204FF48011FFF735FFC219714119
:1004F000BB1846EB0100B4EB030C75EB000C04D306
:10050000E41A65EB000517460E46241908F10100B0
:100510006D4180463428E3DDF91946EB0600091BDE
:10052000A84103D24FF0FF32134601E000221346E8
:100530001BEB070046EB0A51BDE8F04DFFF752BF39
:10054000064C074D06E0E06840F0010394E8070020
:1005500098471034AC42F6D3FFF71AFECC3A0008A5
:10056000EC3A000810B50146806B026C12F0500F97
:1005700005D0026CD20626D500F008FB10BD016C38
:1005800041F40071016401688A6812F0405F17D17C
:10059000027EAAB9CA6A12F4700F02D08A685205A4
:1005A0000ED44A6822F020024A60016C21F4807166
:1005B0000164016CC90403D4016C41F001010164C0
:1005C00000F0E2FA10BD806BC26CBDE81040084636
:1005D000104710B5806B40210164416C41F004016B
:1005E000416400F0D3FA10BD10B5806B00F0CDFA75
:1005F00010BD0000464910B54A6822F440324A60F6
:100600004A6843681A434A6001684A6822F4807263
:100610004A6001684A68036942EA03224A60016845
:100620004A6822F040724A6001684A6883681A4347
:100630004A6001688A6822F400628A6001688A68F8
:10064000C3681A438A60816A6FF07062D1420168A0
:100650008A6822F070628A6001688A680CD0836AB6
:100660001A438A6001688A6822F040528A600168F1
:100670008A68C36A1A4301E022F040528A60016826
:100680008A6822F002028A6001688A68037E42EA70
:1006900043028A6090F82010002901684A680FD050
:1006A00042F400624A6001684A6822F460424A608B
:1006B00001684A68174C436A04EB43331A4301E06C
:1006C00022F400624A600168CA6A22F47002CA62B7
:1006D0000168CA6A838B104C04EB03531A43CA6245
:1006E00001688A6822F400728A6001688A6890F85A
:1006F000303042EA43228A6001688A6822F48062CC
:100700008A6001688A68406942EA8020886010BD7A
:100710000023014000E0FFFF0000F0FF10B5B1F83A
:100720002423012A05D1B1F8262301EB820282EDB0
:10073000000AB1F8242352B9B1F8262301EB820252
:1007400082ED000AB1F82623521CA1F82623B1F845
:100750002623824203D0B1F82423012A38D1002372
:10076000A1F826330DE000BF01EB8204D1EDCA0AE7
:1007700094ED000A521C30EE200A81EDCA0AA1F85D
:100780002623B1F826238242EEDB00EE100AD1EDDB
:10079000CA0AB8EEC00A80EE801A81EDC81AA1F824
:1007A00026330AE001EB820292ED010A82ED000A93
:1007B000B1F82623521CA1F82623B1F82623824241
:1007C000F0DB01209FED040A81EDCA0AA1F82403A1
:1007D00091EDC80A10BD000000000000FEE7000017
:1007E000014800F0F7BA00006814002001681823DF
:1007F000CAB2103AB2FBF3F2054B6FF30901032AB8
:100800009B5CC36500D9091D8165084670470000DF
:100810009032000810B5014600208B698A6A4FF0BB
:10082000C07453B1B3F5005F15D072B1012A0CD07A
:10083000022A0AD0032A09D104E01AB1012A06D0FB
:10084000022A03D1C96AC90100D5012010BDC96AB5
:10085000A142FAD010BD002AF7D0012AF2D0022A14
:10086000F3D0032AF3D010BD30B50468256825F411
:1008700080252560046863608368402B036803D08B
:1008800099600068C26030BD9A600068C16030BD88
:10089000704772B6FEE7000010B5044607222649ED
:1008A000264800F0EDF92448018800EE101AF8EE11
:1008B000400A9FED230A20EE801ADFED220A21EE86
:1008C000201A84ED001A418801EE101AB8EE411A80
:1008D00021EE001A21EE201A84ED011A818801EE22
:1008E000101AB8EE411A21EE001A21EE201A84EDFA
:1008F000021AC18801EE101AB8EE411A21EE001A50
:1009000021EE201A84ED031A018901EE101AB8EEC7
:10091000411A21EE001A21EE201A84ED041A4089B2
:1009200001EE100AB8EE411A21EE000A20EE200A6C
:1009300084ED050A10BD000098000020201400205E
:10094000000080393333534010B5044690ED000A5F
:1009500031490A20FFF7E2FE84ED060A94ED030A0E
:100960002E490A20FFF7DAFE84ED070A94ED010A0A
:100970002B490A20FFF7D2FE84ED0A0A94ED040AFF
:1009800028490A20FFF7CAFE84ED0B0A94ED020AFB
:1009900025490A20FFF7C2FE84ED080A94ED050AF6
:1009A00022490A20FFF7BAFE84ED090A94ED061ADF
:1009B000DFED1F0ADFED1F1A31EE601A30EE600A1C
:1009C00081EE212A84ED0C2A94ED071A31EE602A7B
:1009D0009FED191AC2EE012AC4ED0D2A94ED0A2AE0
:1009E00032EE602AC2EE212AC4ED102A94ED0B2AC1
:1009F00032EE602AC2EE012AC4ED112A94ED082AD3
:100A000032EE602AC0EE010AC2EE212AC4ED0E2A9F
:100A1000C4ED0F0A10BD0000A8000020D403002080
:100A2000000700202C0A0020580D00208410002010
:100A300046B6D33F787AA53CCDCCCC3E78B50024E1
:100A4000009490F83C20012A19D0012280F83C2023
:100A50000A6807230568092A13D9EE680A3A02EBE7
:100A6000420293409E43EE600B788A680A3B03EB98
:100A700043039A400368DD682A43DA6010E00220ED
:100A800078BD2E6902EB420293409E432E610B78A3
:100A90008A6803EB43039A4003681D692A431A617D
:100AA0004A681F23072A13D205686E6B521E02EB99
:100AB000820293409E436E630B790A885B1E92B25A
:100AC00003EB83039A4003685D6B2A435A6327E074
:100AD00005680D2A12D22E6BD21F02EB82029340C0
:100AE0009E432E630B790A88DB1F92B203EB8303CC
:100AF0009A4003681D6B2A431A6311E0EE6A0D3AAF
:100B000002EB820293409E43EE620B790A880D3B12
:100B100092B203EB83039A400368DD6A2A43DA62E8
:100B2000164B0568144A9D4206D10D68122D03D15B
:100B3000556845F48005556005689D4218D10B68DD
:100B4000102B01D0112B13D1536843F400035360D1
:100B5000096810290CD10A490A4A0968B1FBF2F167
:100B600001EB8101490000E0491E00910029FBD101
:100B700080F83C40002078BD002301400020014067
:100B80009000002040420F0070477047704770B5DA
:100B900004004FF0000503D0206C002610B107E0E0
:100BA000012070BD204600F01DF8666484F83C60AA
:100BB000206CC00610D4206C20F4885040F0020055
:100BC00020642046FFF716FD6664206C20F00200CA
:100BD00040F00100206400E0012584F83C602846D4
:100BE00070BD000070B586B0064614216846FFF758
:100BF00069FB1E493068884235D11D4800250168CF
:100C000041F480710160006800F48070059018481C
:100C10001438016841F0010101600068694600F084
:100C2000010005907F2000900320CDE901051148C7
:100C300000F042FA114C1048C4E900050015A56007
:100C4000C4E90350400060618000A0614011E06190
:100C50004002C4E90805204600F08CF908B1FFF70E
:100C600018FEB463A66306B070BD0000002001400A
:100C70004438024000000240106402406814002022
:100C8000F8B5044600200E46009094F83C10012967
:100C900007D0012184F83C1021688B68DB0702D063
:100CA00011E00220F8BD8B6843F001038B604049DE
:100CB000404B0968B1FBF3F101EB410100E0491E33
:100CC00000910029FBD121688B68DB0503D58B6877
:100CD00023F480738B6021688B68DB075DD0236C05
:100CE00040F20165AB4343F48073236449684905CE
:100CF00005D5216C21F4005141F480512164216C0F
:100D0000C90404D5616C21F00601616400E06064EF
:100D100084F83C00A16B2948274DC863A16B284883
:100D20000864A16B2748C86421686FF0220008603E
:100D30002068416841F0806141602068816841F429
:100D4000807181602168134632464C31A06B00F0FF
:100D50007BF968681C49C006206806D0884224D107
:100D6000816811F0405F13D01FE08842F8D0174A25
:100D7000904203D1D1F80423D206F1D0144A904214
:100D800013D1D1F8041301F01F011029E8D30CE0AE
:100D9000816841F08041816007E0206C40F01000E4
:100DA0002064606C40F0010060640020F8BD000029
:100DB0009000002040420F0000230140650500081C
:100DC000E9050008D305000800200140002101408A
:100DD000002201402DE9F84304464FF00009CDF808
:100DE000009063484FF41651A56D0068B0FBF1F711
:100DF0002E6894F85C10082000FA01F131420FD0FF
:100E000021680A6852070BD50A6822F004020A60BA
:100E100094F85C108840A860606D40F00100606547
:100E200094F85C104FF0010808FA01F0304208D045
:100E300021684969090604D5A860606D40F0020088
:100E4000606594F85C1004208840304208D0216826
:100E50000968890704D5A860606D40F004006065EA
:100E600094F85C1010208840304218D0216809683E
:100E7000090714D5A86020680168490304D50068F3
:100E8000000308D5A16C07E00168C90503D4016817
:100E900021F008010160216C09B12046884794F8CF
:100EA0005C1020208840304231D021680968C90692
:100EB0002DD5A86094F8350005282068016806D073
:100EC000490347D5006800031DD4616C1CE021F084
:100ED000160101602068416921F080014161206CA8
:100EE00008B9A06C20B12068016821F008010160F8
:100EF00094F85C103F208840A86084F8358084F81E
:100F00003490216D1FE0E16B09B120468847606D88
:100F100000282BD0606DC00714D0052084F8350060
:100F20002068016821F0010101600098401C0090D8
:100F3000B84203D820680068C007F6D184F835802D
:100F400084F83490E16C002910D001B02046BDE84F
:100F5000F04308470168C905D5D4016821F01001A4
:100F6000016084F8358084F83490CCE7BDE8F883DC
:100F7000900000202DE9F041044600F09BF9064660
:100F80005CB1022084F83500002584F834502068D4
:100F9000016821F0010101600DE00120BDE8F08150
:100FA00000F088F9801B052805D920206065032002
:100FB00084F83500F2E720680068C007F0D12268A5
:100FC000116820480140D4E901031843D4E90336ED
:100FD0003343184363691843A3691843E36918430B
:100FE000236A18430843616A042903D1D4E90B1327
:100FF00019430843106020684069666A20F00701C1
:1010000030460E43012704280CD1A06A0643E06A4B
:1010100040B12046FFF7FEFB20B14020606584F818
:101020003570BAE7206846612046FFF7DFFB94F889
:101030005C203F2191408160656584F83570002017
:10104000ACE700003F8010F02DE9F0410446866DCA
:1010500090F83400002501280DD0012084F83400D8
:1010600094F835700020012F07D084F83400022551
:101070002846BDE8F0810220FBE7022784F835709E
:1010800060652046FFF7F0FB94F85C103F20884035
:10109000B0602068016841F016010160206C20B149
:1010A0002068016841F0080101602068016841F092
:1010B00001010160DCE700002DE9F84FDFF8BCA179
:1010C0000022012503264FF00F090AF1040BAAF1B3
:1010D000040E00BF0B6805FA02F42340A34270D14E
:1010E0000F7907F00307012F01D0022F16D187686F
:1010F0004FEA420806FA08FC27EA0C07D1F80CC0B0
:101100000CFA08FC4CEA070CC0F808C04768A74373
:101110000C79C4F3001494403C4344600C79E443DC
:10112000A4070AD0C4684FEA420C06FA0CF7BC4385
:101130008F6807FA0CF72743C7600C7904F00304A3
:10114000022C12D1D40800EB840CDCF820405707A5
:10115000FF0E09FA07F824EA0804D1F8108008FA0B
:1011600007F848EA0408CCF8208004684FEA420CEB
:1011700006FA0CF7BC430F7907F0030707FA0CF7E0
:10118000274307604C6814F4403F70D03C4C2768FC
:1011900047F480472760246822F0030704F4804462
:1011A0000094384C07EB040CDCF8084897074FEA2A
:1011B000177809FA08F7BC43334FB84202D1002729
:1011C00024E054E0314FB84201D101271EE0304FF6
:1011D000B84201D1022719E02E4FB84201D10327AE
:1011E00014E02D4FB84201D104270FE02B4FB84235
:1011F00001D105270AE02A4FB84201D1062705E0B0
:10120000284FB84201D1072700E0082707FA08F75E
:101210002743CCF80878DAF800405746D1F804C0E4
:101220009C435FEACC2C00D51C433C60DBF80040BB
:101230005F46D1F804C09C435FEA8C2C00D51C4368
:101240003C60DEF800407746D1F804C09C435FEA7A
:101250008C3C00D51C433C60084F083F3C68D1F8EB
:1012600004C09C435FEACC3C00D51C433C60521C4C
:10127000102AFFF42FAFBDE8F88F0000083C0140B2
:1012800044380240003001400000024000040240A7
:1012900000080240000C024000100240001402400E
:1012A00000180240001C02400AB181617047090425
:1012B000FBE70000014880687047000084000020C0
:1012C00002488168027811448160704784000020E0
:1012D0000B4810B5016841F400710160016841F4E8
:1012E00080610160016841F480710160032000F0B9
:1012F0006FF80F2000F006F800F024F8002010BD71
:10130000003C024070B50D4D04464FF47A712878C8
:10131000B1FBF0F00A490968B1FBF0F000F0EAFA1D
:1013200048B9102C07D200222146501E00F030F898
:1013300000206C6070BD012070BD000084000020A2
:10134000900000200A4808B5016841F4804101601E
:10135000006800F4804000900548001F016841F0DB
:1013600080510160006800F08050009008BD0000CE
:1013700044380240002809DB00F01F02012191409F
:101380004009800000F1E020C0F800117047000023
:10139000F0B40E4B1B680C46C3F30223C3F10705E0
:1013A000042D00D90425191D072901D2002300E0CE
:1013B000DB1E012606FA05F1491E214099409E4098
:1013C000761E16403143F0BC01F0F5BB0CED00E099
:1013D000064900F0070208684FF6FF03184040EA8C
:1013E0000220034A10430860704700000CED00E043
:1013F0000000FA052DE9F0470E46050065D0DFF83C
:101400001481D8F80000F7B200F00700B04207D20C
:1014100088F80070D8F8000000F00700B04254D1FE
:1014200028683D4C810712D5400703D5206840F459
:10143000E05020602878000703D5206840F4604021
:1014400020602068A96820F0F00008432060287818
:10145000C0072DD0304968680839012812D0022809
:1014600013D0032811D00968890700292DDA2168D3
:1014700021F0030101432160FFF71CFF814641F287
:10148000883A0EE009688903EFE709688901ECE70B
:10149000FFF710FFA0EB0901514502D90320BDE879
:1014A000F0872068696800F00C00B0EB810FEFD185
:1014B000D8F80010404601F00701B14207D9077083
:1014C000006800F00700B04201D00120E7E728786B
:1014D000400705D52068E96820F4E0500843206003
:1014E0002878000706D52068296920F4604040EA82
:1014F000C100206000F018F82168084AC1F3031108
:10150000515CC8400649086006480068FFF7FAFECB
:101510000020C4E7003C024008380240983200082E
:101520009000002088000020154810B5006810F0D9
:101530000C02144813D04110042A0FD0082A0ED1EF
:101540000F4C241F2268236802F03F025B0207D57C
:101550002068C0F38810A0FB010106E0084610BD1A
:101560002168C1F38811A1FB00010023FEF772FE80
:101570002168C1F30141491C4900B0FBF1F010BDE5
:10158000083802400024F4002DE9F84F04006ED022
:101590002078DFF84C93C007A9F104054AD009F17F
:1015A00004000168C1F38101012908D00068C0F37B
:1015B000810002280AD1D9F80000400206D5286827
:1015C000800337D560680028E1D033E06068B0F56B
:1015D000803F10D0B0F5A02F286810D020F48030C4
:1015E0002860286820F4802028606068A8B1FFF790
:1015F00061FE06460DE0286840F48030F4E740F4D0
:1016000080202860F7E700BFFFF754FE801B6428A6
:1016100073D828688003F7D50CE0FFF74BFE064629
:1016200005E000BFFFF746FE801B6428F0D828685D
:101630008003F7D42078DFF8AC8280074FF0000AEF
:101640003ED5A748001D016811F00C0F08D00068B6
:10165000C0F3810002280BD1D9F80000400207D462
:101660002868800716D5E068012800D112E033E130
:10167000E068B8B10120C8F80000FFF71BFE06467D
:1016800005E000BFFFF716FE801B0228C0D82868BF
:101690008007F7D52868216920F0F80040EAC100EA
:1016A00028600DE0C8F800A0FFF704FE064604E03D
:1016B000FFF700FE801B02281FD828688007F7D498
:1016C0002078000722D5864F87486169703771B14D
:1016D00001210160FFF7EEFD064604E0FFF7EAFD99
:1016E000801B022809D838688007F7D50EE0C0F8BB
:1016F00000A0FFF7DFFD064605E082E0FFF7DAFD18
:10170000801B02287DD838688007F7D420784007EE
:1017100068D5DFF8CCB100270BF13C0BDBF80000FB
:10172000C0000BD4DBF8001041F08051CBF8001062
:10173000DBF80000012700F0805000906B4E30680D
:10174000C00510D4306840F480703060FFF7B2FDFF
:10175000009005E0FFF7AEFD0099401A022850D82E
:101760003068C005F6D55E4EA0686C3601280FD0F3
:101770000528306810D020F001003060306820F07B
:1017800004003060A068B8B1FFF794FD00900FE04E
:10179000306840F00100F4E740F004003060F7E703
:1017A000FFF788FD0099411A41F28830814266D8DE
:1017B00030688007F4D50EE0FFF77CFD009007E06D
:1017C000FFF778FD0099411A41F28830814256D8DE
:1017D00030688007F4D42FB1DBF8001021F080517D
:1017E000CBF80010A069C8B33D49091D0968C1F3D1
:1017F000810102294AD00228504607D0C8F860006B
:1018000000E03CE0FFF756FD04463BE04746C8F8E1
:101810006000FFF74FFD064605E000BFFFF74AFDF9
:10182000801B02282BD828688001F7D4D4E907014F
:101830000843A16A2E4A490802EB0141626A41EA63
:101840008211084394F82C1040EA0161C9F8001095
:1018500001203866FFF72EFD044606E03EE000BF9B
:10186000FFF728FD001B022809D828688001F7D55A
:1018700034E000BFFFF71EFD001B022802D9032041
:10188000BDE8F88F28688001F4D427E00128F7D05C
:10189000D9F80000E26900F4800191421CD1226A6B
:1018A00000F03F01914217D147F6C071626A0140D2
:1018B000B1EB821F10D1A26A4FF0FF3300F4403128
:1018C00003EB5202B1EB024F06D194F82C1000F05A
:1018D0007060B0EB016F01D00120D1E70020CFE7AD
:1018E0000438024000004742800E4742007000402A
:1018F0000000FFFF10B5401EB0F1807F01D3012032
:1019000010BD4FF0E02460610F21601701F053F922
:101910000020A06107202061002010BD70477047A3
:1019200010B590F83C20012A22D0012280F83C20FA
:10193000CA688C6822F4407222434C6822F48062A8
:1019400022430C6822F4006222430C6922F4805284
:1019500022434C6922F400522243C969002322F435
:1019600080420A4301684A6480F83C30002010BD80
:10197000022010BD70B590F83C20012A32D001241D
:1019800080F83C40022280F83D2003685A689D6838
:1019900022F070060A6832435A60134B02689A427A
:1019A00014D0B2F1804F11D0104B9A420ED0104B90
:1019B0009A420BD00F4B9A4208D00F4B9A4205D057
:1019C0000E4B9A4202D00E4B9A4204D1496825F040
:1019D00080031943916080F83D40002180F83C105D
:1019E000084670BD022070BD0000014000040040A8
:1019F00000080040000C004000040140004001408D
:101A00000018004010B5040003D094F83D0010B158
:101A100007E0012010BD002084F83C00204600F0C3
:101A20001FF8022084F83D00211D206800F046FFC9
:101A3000012084F8460084F83E0084F83F0084F8D2
:101A4000400084F8410084F8420084F8430084F8A0
:101A5000440084F8450084F83D00002010BD0000DB
:101A600008B501682A48814227D12A48016841F017
:101A7000010101600068002200F0010000901146A1
:101A80001820FFF785FC1820FFF774FC0022114690
:101A90001920FFF77DFC1920FFF76CFC002211468E
:101AA0001A20FFF775FC1A20FFF764FC002211468C
:101AB0001B20FFF76DFC1B2015E01648001FB1F13D
:101AC000804F14D0144A914220D1016841F00201A4
:101AD00001600068002200F00200009011461D2005
:101AE000FFF756FC1D20BDE80840FFF743BC016826
:101AF00041F0010101600068002200F00100009047
:101B000011461C20FFF744FC1C20ECE708BD000038
:101B100000000140443802400004004090F83D10AD
:101B2000012901D001207047022180F83D10016891
:101B3000CA6842F00102CA6000681149884214D0A4
:101B4000B0F1804F11D00F4988420ED00E49884223
:101B50000BD00E49884208D00D49884205D00D4966
:101B6000884202D00C49884204D1816801F0070103
:101B7000062903D0016841F001010160002070478F
:101B8000000001400004004000080040000C00403C
:101B900000040140004001400018004070B50446B8
:101BA00090F83C000025012817D0012684F83C60FD
:101BB000022084F83D002068826822F0770222F437
:101BC0007F4282600868502838D00DDC20284FD032
:101BD00005DC90B3102811D14AE0022070BD3028F6
:101BE00046D040280AD13BE060282FD070280DD085
:101BF000B0F5805F03D0B0F5005F12D0012584F806
:101C00003D60002084F83C00284670BDCB68D1E9D7
:101C10000121206800F0C3FE2068816841F077014F
:101C200009E0CB68D1E90121206800F0B8FE206806
:101C3000816841F480418160E1E719E0CA68496840
:101C4000206800F081FF5021206806E0CA684968DA
:101C5000206800F08AFF6021206800F0AAFECEE72D
:101C6000CA684968206800F06FFF40212068F4E7E7
:101C7000226801461046F0E7704770B504460068D8
:101C800001694FF00005C943890715D4C168C943EC
:101C9000890711D4E91E016101202077206880693D
:101CA0008007204602D0FFF7E7FF04E000F0C2F80B
:101CB000204600F054F9257720680169C943490797
:101CC00017D4C168C943490713D46FF004010161F7
:101CD000022020772068806910F4407F204602D0DF
:101CE000FFF7CAFF04E000F0A5F8204600F037F93E
:101CF000257720680169C943090716D4C168C9431B
:101D0000090712D46FF008010161042020772068D0
:101D1000C0698007204602D0FFF7AEFF04E000F064
:101D200089F8204600F01BF9257720680169C9432E
:101D3000C90617D4C168C943C90613D46FF010018E
:101D40000161082020772068C06910F4407F204698
:101D500002D0FFF791FF04E000F06CF8204600F09D
:101D6000FEF8257720680169C943C90708D1C16811
:101D7000C943C90704D1891E0161204600F054F906
:101D800020680169C943090609D4C168C943090625
:101D900005D46FF0800101612046FFF7BFFD206888
:101DA0000169C943490609D4C168C943490605D434
:101DB0006FF040010161204600F0EAFA20680169F5
:101DC000C94389060BD4C168C943890607D46FF09B
:101DD000200101612046BDE87040FFF7A0BD70BD45
:101DE00010B586B0044614216846FEF76BFA0E491A
:101DF0002068884216D10D480021026842F0100286
:101E00000260006800F0100005904FF42850009028
:101E10000220CDE901010120CDE903106946044803
:101E2000FFF74AF906B010BD00000140303802400B
:101E300000100240704770B5044690F83C00002640
:101E40000D4601280FD0012084F83C006AB1042A15
:101E50001DD0082A2FD00C2A3FD00126002084F85C
:101E60003C00304670BD022070BD206800F0AAFD25
:101E70002068816941F0080181612068816921F051
:101E800004018161206881692A69114311E0206899
:101E900000F0C8FD2068816941F40061816120681B
:101EA000816921F480618161206881692A6941EA40
:101EB00002218161D2E7206800F0EAFD2068C16953
:101EC00041F00801C1612068C16921F00401C161CC
:101ED0002068C1692A69114311E0206800F00CFEF6
:101EE0002068C16941F40061C1612068C16921F4C1
:101EF0008061C1612068C1692A6941EA0221C1612A
:101F0000ACE710B5040003D094F83D0010B107E031
:101F1000012010BD002084F83C00204600F01EF88F
:101F2000022084F83D00211D206800F0C7FC01203C
:101F300084F8460084F83E0084F83F0084F84000AE
:101F400084F8410084F8420084F8430084F8440097
:101F500084F8450084F83D00002010BD70477047AC
:101F600010B50446022249B104290ED0082913D025
:101F700094F84100012816D0012010BD94F83E00CD
:101F80000128F9D184F83E200FE094F83F000128A1
:101F9000F2D184F83F2008E094F840000128EBD10A
:101FA00084F8402001E084F841200122206800F0FC
:101FB000E9FC16492068164A884201D0904203D1B4
:101FC000436C43F4004343642068884213D0B0F16B
:101FD000804F10D00F4988420DD00F4988420AD057
:101FE0000E49884207D0904205D00D49884202D060
:101FF0000C49884204D1816801F00701062903D009
:10200000016841F001010160002010BD00000140A5
:10201000000401400004004000080040000C0040A3
:10202000004001400018004070B50546CA48CB4C3E
:1020300085422DED048B7DD1F2EE080AB1EE040A43
:1020400042F2107000F04CFBC548FEF725FCC44876
:10205000FEF77AFC6088401C80B2608094ED140A20
:10206000D4ED0D0AC82800EEA00A84ED140A94ED00
:10207000151AD4ED0E0A00EEA01A84ED151A94ED8F
:10208000161AD4ED0F0A00EEA01A84ED161A3CD1F0
:1020900000206080DFEDB38A20EE280A10EE100ADF
:1020A000FEF71BF941EC100B00F0B6FF51EC100BE2
:1020B000FEF726F99FEDAC8A606084ED148A94EDFA
:1020C000150A20EE280A10EE100AFEF706F941EC78
:1020D000100B00F0A1FF51EC100BFEF711F9A060FE
:1020E00084ED158A94ED160A20EE280A10EE100AE7
:1020F000FEF7F3F841EC100B00F08EFF51EC100BE3
:10210000FEF7FEF8E06084ED168A94ED050ADFED37
:10211000970A94ED041A60EE200A80EE810A84ED9D
:10212000130AD4ED0D0A60EE201ADFED910A81EE5C
:10213000A01A00E041E0D4ED011A8E4E81EE212A72
:1021400084ED0A2A94ED0E1A60EE011A81EEA01AAF
:10215000D4ED021A81EE212A84ED0B2A94ED0F1A98
:1021600020EE011A81EE200AD4ED030A80EE201A37
:1021700084ED0C1A208801280ED101221146304628
:10218000FFF792F8012220213046FFF78DF8012257
:1021900040213046FFF788F8208870B900220121DD
:1021A0003046FFF781F8002220213046FFF77CF807
:1021B000002240213046FFF777F86F4885427DD1F5
:1021C00094ED0A0AD4ED0B1AB6EE001AD4ED0C0AFF
:1021D00001EEC10AF0EE008A00EEC10AB0EE081A64
:1021E00020EE282A82EE010A84ED120A9FED632A6E
:1021F00020EE000A61EE821A40EEC21A61EEA81AC1
:10220000C1EE810AC4ED110A00EEA00A10EE100A18
:10221000FEF763F841EC100B00F0FEFE51EC100BE2
:10222000FEF76EF8E06594ED118AB5EEC08AF1EE26
:1022300010FA0CDDD4ED120AF5EEC00AF1EE10FA38
:1022400005DD88EE200A00F0C7FC84ED100AB5EE2B
:10225000C08AF1EE10FA0CD2D4ED120AF5EEC00AE3
:10226000F1EE10FA05DD88EE200A00F0B5FC84EDF1
:10227000100A9FED439AB5EEC08AF1EE10FA10DD18
:1022800094ED120AB5EEC00AF1EE10FA09D2F1EEA1
:10229000400A88EE200A00F09FFC39EE400A84EDE7
:1022A000100AB5EEC08AF1EE10FA10D2D4ED120A7F
:1022B000F5EEC00AF1EE10FA09D200E049E088EE2E
:1022C000200A00F089FC30EE090A84ED100AD4EDF2
:1022D000060A9FED2C8A80EE880A60EE280A94EDAB
:1022E000100A00EE890A00F027FDD4ED170A1C4DF4
:1022F00020EE200A283D85ED000A94ED060AC0EE86
:10230000080A94ED100A60EEA80A00EE890A00F0AF
:10231000BBFDD4ED170A1D4820EE200ADFED1A0A96
:1023200085ED010A94ED070A30EE600ABCEEC00AA2
:1023300010EE101A416394ED090ABCEEC00A10EECB
:10234000101A816394ED080ABCEEC00A10EE101A50
:10235000C163BDEC048B70BD58150020180000202F
:10236000D81300200AD7A33B00000000D7B3DD3FFD
:10237000F304B53F0010024010150020D7B35D3FB5
:10238000DA0F49400000B4430000A04300000140C0
:102390007047FEE72DE9FF4100253448009501957F
:1023A000029531490395016001244FF480310461A5
:1023B000C0E90115057680F820502D49C0E90A15BD
:1023C0000726C661C56080F830404461FEF7DFFB38
:1023D00008B1FEF75EFACDE90054022769462348AA
:1023E0000297FEF72BFB08B1FEF753FACDE9004741
:1023F00069461E48FEF722FB08B1FEF74AFA03249D
:10240000CDE9007469461948FEF718FB08B1FEF7DC
:1024100040FA0420CDE9004069461448FEF70EFB5F
:1024200008B1FEF736FA05200090019069460F4882
:10243000FEF704FB08B1FEF72CFA0620009001908D
:1024400069460A48FEF7FAFA08B1FEF722FACDE922
:10245000005669460548FEF7F1FA002801D0FEF75C
:1024600018FABDE8FF810000002001402014002080
:102470000100000F094808B5016841F480010160BE
:102480000068002200F48000009011463820FEF71A
:102490007FFFBDE808403820FEF76CBF30380240AF
:1024A00030B587B014216846FDF70CFF1A480024A8
:1024B000016841F010010160016801F0100105910F
:1024C000016841F004010160016801F00401059117
:1024D000016841F080010160016801F0800105910F
:1024E000016841F00101016000680C4D00F001003D
:1024F0000590002261212846FEF7D6FE612000905B
:102500000120CDE901040220039069462846FEF728
:10251000D3FD07B030BD000030380240001002404B
:1025200010B596B000240F94109411941294139443
:102530001C2168461494FDF7C5FE202107A8FDF76D
:10254000C1FE31482F49C0E900142021816042F2C8
:10255000CF01C0E903148021C0E90541FFF752FA19
:1025600008B1FEF796F94FF480500F900FA9264856
:10257000FFF714FB08B1FEF78CF92348FFF7C1FC05
:1025800008B1FEF786F9139413A91F481494FFF7B6
:10259000F1F908B1FEF77DF96020CDE9000402945D
:1025A0000394049405940022694617480694FFF7A3
:1025B00042FC08B1FEF76DF9042269461248FFF7A4
:1025C0003AFC08B1FEF765F9082269460E48FFF7A4
:1025D00032FC08B1FEF75DF90794089409944FF4B2
:1025E00000500A94CDE90B4007A907480E94FFF765
:1025F00097F908B1FEF74DF90348FFF7F1FB16B064
:1026000010BD000000000140C814002010B586B0C5
:1026100000241648009401940294039404944FF00B
:1026200080410594C0E9001440F63301C0E902413D
:10263000802104618161FFF7E5F908B1FEF729F90E
:102640004FF48050009069460848FFF7A7FA08B198
:10265000FEF71FF9049404A904480594FFF78AF9CA
:10266000002801D0FEF715F906B010BD10150020A6
:1026700010B586B000241748009401940294039486
:10268000049413490594C0E9001442F2CF01C0E953
:102690000241802104618161FFF7B4F908B1FEF7BE
:1026A000F8F84FF48050009069460A48FFF776FA30
:1026B00008B1FEF7EEF8049404A906480594FFF764
:1026C00059F9002801D0FEF7E4F806B010BD00006B
:1026D0000004004058150020FEE7FEE770477047F1
:1026E0009FED301A10B520EE010A2DED068B322138
:1026F000B0FBF1F080EE209A00EE100ADFED2B8A9D
:10270000294CB8EE400AF0EE009A9FED29AAC8EED7
:10271000800AC4ED020AD4ED010A80EEA80A20EE78
:10272000290A20EE0A0AFDF74BFD20EE090A21488E
:102730009FED218A80ED000AD4ED010A80EEA80AFF
:1027400060EE290AB0EE480A00EE8A0AFDF738FD6D
:1027500020EE090A194880ED000A94ED010AC0EE46
:10276000280A20EEA90A10EE0A8AB0EE480AFDF700
:1027700027FD20EE090A1248124980ED000A94ED67
:10278000010AD4ED020A30EE200A10EE100A84EDA0
:10279000010A884203DB9FED0C0A84ED010ABDECBF
:1027A000068B10BDD7B3DD3F000000200000B4430E
:1027B000DA0F494078000020910A06407C00002092
:1027C000800000200000B44300000000FEF778BD48
:1027D00030B593B030216846FDF774FD14210CA884
:1027E000FDF770FD1D480025016841F08051016032
:1027F000006800F0805011901948016841F4804150
:1028000001600068022400F48040119001200090D3
:10281000000401908001CDE9064008AA0420A82107
:1028200082E813000B906846FEF7AEFE08B172B660
:10283000FEE70CA90F2081E831004FF4A0500F9063
:102840004FF48050109005210CA8FEF7D3FD00280E
:1028500001D072B6FEE713B030BD00004038024030
:10286000007000400248016841F470010160704747
:1028700088ED00E00148FFF700BA0000C81400200E
:102880000148FFF7FAB90000C81400200148FFF71B
:10289000F4B90000C81400200148FFF7EEB90000A9
:1028A000C81400200148FFF7E8B900001015002007
:1028B0000148FFF7E2B9000058150020F0B50268A2
:1028C000254C264D264E274F274B4FF0804CA042DB
:1028D00009D0604507D0A84205D0B04203D0B84225
:1028E00001D0984204D122F0700E4A6842EA0E02EA
:1028F000A0421BD0604519D0A84217D0B04215D0D5
:10290000B84213D0984211D0184DA8420ED0184D9D
:10291000A8420BD0174DA84208D0174DA84205D0A9
:10292000164DA84202D0164DA84203D122F440759C
:10293000CA682A434D6922F080022A4302608A68ED
:10294000C2620A688262A04201D0984201D109693C
:10295000016301214161F0BD00000140000400401D
:1029600000080040000C004000040140004001400D
:10297000004401400048014000180040001C004095
:102980000020004010B501F01F030121046A9940A6
:102990008C430462016A9A401143016210BD10B574
:1029A000846842EA032224F47F440A43224382607B
:1029B00010BD826822F070020A4342F00701816074
:1029C00070470000F0B5026A22F001020262036A59
:1029D00042688469124E24F073050C682C4323F07E
:1029E00002058B682B430D4DA84201D0B04205D1A2
:1029F00023F00807CB683B4323F00403A84201D02F
:102A0000B04205D14D6922F4407215438A692A43C8
:102A100042608461496841630362F0BD0000014087
:102A200000040140F0B5026A22F010020262026A5C
:102A3000436884690D6824F4E64444EA05248D68FB
:102A400022F0200242EA05120F4D104EA84201D09A
:102A5000B04206D1CF6822F0800242EA071222F08B
:102A60004002A84201D0B04207D14D6923F440632F
:102A700043EA85038D6943EA8503436084614968BD
:102A800081630262F0BD00000000014000040140CB
:102A9000F0B5026A22F480720262026A4368C46975
:102AA00022F4007224F073050C68124E2C438D68DA
:102AB00042EA05220E4DA84201D0B04206D1CF68AD
:102AC00022F4006242EA072222F48062A84201D086
:102AD000B04207D14D6923F4405343EA05138D6991
:102AE00043EA05134360C4614968C1630262F0BDF3
:102AF000000001400004014030B5026A22F4805217
:102B00000262046A4268C3690D6823F4E64343EA3B
:102B100005238D6824F4005444EA0534084DA84286
:102B200002D0084DA84204D14D6922F4804242EA05
:102B300085124260C36149680164046230BD0000CF
:102B4000000001400004014010B5036A046A24F04B
:102B500001040462846924F0F00444EA021423F0BE
:102B60000A020A438461026210BD10B5036A23F0B1
:102B7000100303628369046A23F4704343EA023258
:102B800024F0A00343EA01118261016210BDFEE757
:102B90004100080218BF04200A0E18BF40F00100CF
:102BA0004FF07F4232EA010108BF40F002000128E5
:102BB00008BF052070470907090E002804DB00F153
:102BC000E02080F80014704700F00F0000F1E020D2
:102BD00080F8141D7047000010B54FF00E412DED28
:102BE000028BB0EE408A18EE100A01EB4001B1F101
:102BF000145F5CD24FF0FE41B1EB400F24BF9FED5C
:102C0000400AF0EE400A12D210F0004F19BFDFED7B
:102C10003D0A9FED3D0ADFED3D0A9FED3D0AFFEEC7
:102C2000001A81EE881AB0EE418A18EE100A4FF0B1
:102C3000FC41B1EB400F1BD210F0004FDFED351A15
:102C40009FED352A1DBFBEEE001A70EEE10A30EE90
:102C5000420AB6EE001A04BF70EEA10A30EE020A74
:102C600038EE412AF7EE001A48EE011A82EE218A68
:102C7000DFED2A1A9FED2A2A28EE081A01EE212AF2
:102C8000DFED281A41EE021A9FED272A01EE212AD4
:102C9000DFED261A41EE021A28EE011A01EE210A92
:102CA00030EE080ABDEC028B30EE200A10BD4FF06A
:102CB000E441B1EB400F0CD918EE100AFFF768FFA2
:102CC000042808BF00F0F0F9B0EE480ABDEC028B12
:102CD00010BD4FF07F41B1EB400F07D2B0EE480A74
:102CE000BDEC028BBDE8104000F0D3B910F0004FEE
:102CF00014BF9FED0F0A9FED0F0ABDEC028B10BDB4
:102D0000000000000000C9BF22AAFDB90000C93FB1
:102D100022AAFD390060ED3EC30ACE372DAD65BD58
:102D20008FB8D53D0FB511BE61C84C3EA8AAAABE4A
:102D3000DB0FC9BFDB0FC93F10EE101A08B5444ABC
:102D40006846B2EB410F28D94FF0E640B0EB410F97
:102D500094BF00204FF0FF3000900098002861DB06
:102D600060EE000A10F0010F45D010F0020FDFED09
:102D7000391A9FED391A00EEE11ADFED381A40EEEC
:102D8000811A21EEA01AF0EE400A40EE010A08BFB7
:102D9000F1EE600AB0EE600A08BD314B21F000424E
:102DA00093423CD911F0004FDFED2E0A20EE201A9D
:102DB000DFED2D0A19BF31EE601A71EE200A31EEF7
:102DC000201A71EE600ABDEEE01A11EE100A9FEDB6
:102DD000271A00F0030000EEC10A9FED251A0090AB
:102DE00000EEC10A9FED231A00EEC10A9FED221AE0
:102DF00000EEC10AB1E79FED211A9FED210A10F004
:102E0000020F00EE810A9FED1F1A00EE801AB7EE46
:102E1000000A00EE810A18BFB1EE400A08BD00F0BA
:102E20004BF99AE710EE100A4000B0F17F4F3CBF1B
:102E3000B7EE000A08BD07D14FF0010000F0F6F927
:102E4000BDE8084000F028B9BDE8084000F021B90D
:102E5000B61F927E336D4C39DA82083CA0AA2ABE96
:102E6000490E494683F9223F0000004B0000C93F4C
:102E700000A0FD390020A2331A61342CB93AB2BA4D
:102E8000CA9F2A3DDDFFFFBE00B510EE101A2DEDE2
:102E9000028B81B0524A6846B2EB410F2ED94FF0F7
:102EA000E640B0EB410F94BF00204FF0FF300090A0
:102EB0000098B0EE408A00286ADB10F0010F4BD07A
:102EC00068EE080A9FED471A9FED470A00EE810A57
:102ED0009FED461A10F0020F00EE801AB7EE000ABE
:102EE00000EE810A02BF01B0BDEC028B00BD00BF45
:102EF00001B0B1EE400ABDEC028B00BD3C4B21F0AD
:102F00000042934241D911F0004FDFED3A0A20EE22
:102F1000201ADFED390A19BF31EE601A71EE200A6E
:102F200031EE201A71EE600ABDEEE01A11EE100AC1
:102F30009FED321A00F0030000EEC10A9FED301A37
:102F4000009000EEC10A9FED2F1A00EEC10A9FED1E
:102F50002E1A00EEC10AABE728EE080A9FED2B1AE5
:102F6000DFED2B0A10F0020F40EE410A9FED291A07
:102F700000EE201A61EE000AB0EE480A08EE200AC0
:102F8000B6D101B0BDEC028B00BD00F095F88FE723
:102F900018EE100A4000B0F17F4F0DD218EE100A63
:102FA000FFF7F6FD042808BF00F07EF8B0EE480AEF
:102FB00001B0BDEC028B00BD09D1012000F036F953
:102FC00001B0BDEC028B5DF804EB00F065B801B018
:102FD000B0EE480ABDEC028B5DF804EB00F059B886
:102FE000B61F927EB93AB2BACA9F2A3DDDFFFFBE34
:102FF000490E494683F9223F0000004B0000C93FBB
:1030000000A0FD390020A2331A61342C336D4C39F5
:10301000DA82083CA0AA2ABE00B52DED048BB0EEE2
:10302000409AF0EE609A83B051EC190BFDF737FA35
:1030300041EC180B18EE100A18EE901A8DED008B6B
:10304000002818BF0120084320F00040C0F17F6035
:1030500000F1E040C00F14D019EE101A19EE900ADA
:103060008DED009B002918BF0121084320F000408E
:10307000C0F17F6000F1E040C00F04BF012000F00C
:10308000D5F8B0EE480A03B0F0EE680ABDEC048B48
:1030900000BD30EE000A7047DFED020A80EEA00AA4
:1030A00070470000000000009FED020A20EE000AB9
:1030B00070470000000000102DE9F0014FF07F4242
:1030C000B2EB410F9FBF4FF0FF310160BDE8F0014F
:1030D00070474FF0004242EA0123C1F3C752783AE9
:1030E000551112F01F0C434CCCF120067C44C1F367
:1030F000C752A2F178024FEA621204EB820254F83E
:10310000254008BFD2E9015612D0556804FA0CF4E4
:1031100025FA06F73C43976805FA0CF527FA06F8F6
:10312000D26807FA0CFCF24045EA08054CEA0206B0
:10313000A4FB034CA5FB0352A6FB03631D449D4265
:1031400034BF012600261319334416B1934202D925
:1031500003E0934201D2012200E00022624402F126
:10316000200C9206DC0C42EA443200EE102A5B038B
:10317000DFED210AF8EEC01A00EE103A4FEA9C1C6F
:1031800011F0004FB8EE400AC0F800C020EE201A3F
:1031900000EE105ADFED190AB8EE400A20EE200AC0
:1031A00071EE810A70EE800A10EE902A02F500623C
:1031B0006FF30B0200EE902A70EEE11A31EEC11AA5
:1031C000DFED101A30EE411A9FED0D0A20EE800A55
:1031D00001EE210A9FED0C1A00EE810A04BFBDE842
:1031E000F0017047CCF180510160BDE8F001B1EE13
:1031F000400A7047BC090000000000360000802C27
:1032000022AAFD29DB0FC92F0000C92F02E008C840
:10321000121F08C1002AFAD170477047002001E050
:1032200001C1121F002AFBD170470000014908604C
:103230007047000094000020FEF74AF8FFF7C8FA34
:10324000FFF72EF9FFF716F9FFF7A4F8FFF768F973
:10325000FFF7DCF9FFF70CFA0A48FEF75FFC0A48B3
:10326000FEF75CFC0948FEF759FC00210748FEF711
:1032700077FE04210548FEF773FE08210348FEF798
:103280006FFEFEE71015002058150020C81400201E
:1032900000061016000610160000000000000000D6
:1032A000010203040607080900000000920E493CD1
:1032B000B10AC93C2BC3163D2EFB483D752B7B3D07
:1032C00004A9963D80B6AF3D36BDC83D2FBCE13D5B
:1032D00073B2FA3D87CF093E8340163EB5AB223E1E
:1032E000A2102F3ECF6E3B3EC2C5473E0115543E55
:1032F000135C603E7F9A6C3ECCCF783EC07D823EB0
:10330000938E883E229A8E3E32A0943E86A09A3EAC
:10331000E59AA03E128FA63ED47CAC3EEF63B23E4F
:103320002A44B83E491DBE3E15EFC33E53B9C93EBF
:10333000CA7BCF3E4136D53E80E8DA3E4F92E03E32
:103340007533E63EBBCBEB3EEA5AF13ECBE0F63EB0
:10335000275DFC3EE4E7003F3D9C033F824B063F78
:103360009BF5083F6B9A0B3FDA390E3FCDD3103FE8
:103370002A68133FD9F6153FC07F183FC6021B3F8E
:10338000D17F1D3FCBF61F3F9967223F25D2243FB7
:103390005636273F1594293F4AEB2B3FDE3B2E3F05
:1033A000BB85303FC9C8323FF304353F233A373F2E
:1033B0004268393F3B8F3B3FF9AE3D3F67C73F3FD8
:1033C00070D8413F01E2433F03E4453F65DE473F9C
:1033D00012D1493FF8BB4B3F029F4D3F207A4F3FF0
:1033E0003D4D513F4918533F31DB543FE595563F22
:1033F0005348583F6AF2593F1A945B3F532D5D3F43
:1034000005BE5E3F2146603F97C5613F5A3C633F22
:1034100059AA643F880F663FD86B673F3CBF683F3F
:10342000A7096A3F0C4B6B3F5E836C3F93B26D3FC5
:103430009ED86E3F73F56F3F0809713F5213723F7C
:103440004714733FDD0B743F0BFA743FC6DE753FC4
:1034500007BA763FC58B773FF853783F9812793F8C
:103460009DC7793F02737A3FBE147B3FCDAC7B3F53
:10347000283B7C3FC9BF7C3FAC3A7D3FCCAB7D3F16
:1034800023137E3FB0707E3F6DC47E3F580E7F3F5A
:103490006D4E7F3FAB847F3F0FB17F3F97D37F3F20
:1034A00043EC7F3F11FB7F3F0000803F11FB7F3FDC
:1034B00043EC7F3F97D37F3F0FB17F3FAB847F3F8C
:1034C0006D4E7F3F580E7F3F6DC47E3FB0707E3F94
:1034D00023137E3FCCAB7D3FAC3A7D3FC9BF7C3FE1
:1034E000283B7C3FCDAC7B3FBE147B3F02737A3FD1
:1034F0009DC7793F9812793FF853783FC58B773F46
:1035000007BA763FC6DE753F0BFA743FDD0B743F9A
:103510004714733F5213723F0809713F73F56F3FB1
:103520009ED86E3F93B26D3F5E836C3F0C4B6B3FFA
:10353000A7096A3F3CBF683FD86B673F880F663F6B
:1035400059AA643F5A3C633F97C5613F2146603F9B
:1035500005BE5E3F532D5D3F1A945B3F6AF2593FB3
:103560005348583FE595563F31DB543F4918533F88
:103570003D4D513F207A4F3F029F4D3FF8BB4B3F9F
:1035800012D1493F65DE473F03E4453F01E2433F37
:1035900070D8413F67C73F3FF9AE3D3F3B8F3B3F50
:1035A0004268393F233A373FF304353FC9C8323FB9
:1035B000BB85303FDE3B2E3F4AEB2B3F1594293F26
:1035C0005636273F25D2243F9967223FCBF61F3F2F
:1035D000D17F1D3FC6021B3FC07F183FD9F6153F64
:1035E0002A68133FCDD3103FDA390E3F6B9A0B3F59
:1035F0009BF5083F824B063F3D9C033FE4E7003FBD
:10360000275DFC3ECBE0F63EEA5AF13EBBCBEB3EFB
:103610007533E63E4F92E03E80E8DA3E4136D53ED5
:10362000CA7BCF3E53B9C93E15EFC33E491DBE3ECE
:103630002A44B83EEF63B23ED47CAC3E128FA63E25
:10364000E59AA03E86A09A3E32A0943E229A8E3EF3
:10365000938E883EC07D823ECCCF783E7F9A6C3E72
:10366000135C603E0115543EC2C5473ECF6E3B3EE3
:10367000A2102F3EB5AB223E8340163E87CF093EB7
:1036800073B2FA3D2FBCE13D36BDC83D80B6AF3DBB
:1036900004A9963D752B7B3D2EFB483D2BC3163D63
:1036A000B10AC93C920E493C00000000920E49BC90
:1036B000B10AC9BC2BC316BD2EFB48BD752B7BBD03
:1036C00004A996BD80B6AFBD36BDC8BD2FBCE1BD57
:1036D00073B2FABD87CF09BE834016BEB5AB22BE1A
:1036E000A2102FBECF6E3BBEC2C547BE011554BE51
:1036F000135C60BE7F9A6CBECCCF78BEC07D82BEAC
:10370000938E88BE229A8EBE32A094BE86A09ABEA8
:10371000E59AA0BE128FA6BED47CACBEEF63B2BE4B
:103720002A44B8BE491DBEBE15EFC3BE53B9C9BEBB
:10373000CA7BCFBE4136D5BE80E8DABE4F92E0BE2E
:103740007533E6BEBBCBEBBEEA5AF1BECBE0F6BEAC
:10375000275DFCBEE4E700BF3D9C03BF824B06BF74
:103760009BF508BF6B9A0BBFDA390EBFCDD310BFE4
:103770002A6813BFD9F615BFC07F18BFC6021BBF8A
:10378000D17F1DBFCBF61FBF996722BF25D224BFB3
:10379000563627BF159429BF4AEB2BBFDE3B2EBF01
:1037A000BB8530BFC9C832BFF30435BF233A37BF2A
:1037B000426839BF3B8F3BBFF9AE3DBF67C73FBFD4
:1037C00070D841BF01E243BF03E445BF65DE47BF98
:1037D00012D149BFF8BB4BBF029F4DBF207A4FBFEC
:1037E0003D4D51BF491853BF31DB54BFE59556BF1E
:1037F000534858BF6AF259BF1A945BBF532D5DBF3F
:1038000005BE5EBF214660BF97C561BF5A3C63BF1E
:1038100059AA64BF880F66BFD86B67BF3CBF68BF3B
:10382000A7096ABF0C4B6BBF5E836CBF93B26DBFC1
:103830009ED86EBF73F56FBF080971BF521372BF78
:10384000471473BFDD0B74BF0BFA74BFC6DE75BFC0
:1038500007BA76BFC58B77BFF85378BF981279BF88
:103860009DC779BF02737ABFBE147BBFCDAC7BBF4F
:10387000283B7CBFC9BF7CBFAC3A7DBFCCAB7DBF12
:1038800023137EBFB0707EBF6DC47EBF580E7FBF56
:103890006D4E7FBFAB847FBF0FB17FBF97D37FBF1C
:1038A00043EC7FBF11FB7FBF000080BF11FB7FBFD8
:1038B00043EC7FBF97D37FBF0FB17FBFAB847FBF88
:1038C0006D4E7FBF580E7FBF6DC47EBFB0707EBF90
:1038D00023137EBFCCAB7DBFAC3A7DBFC9BF7CBFDD
:1038E000283B7CBFCDAC7BBFBE147BBF02737ABFCD
:1038F0009DC779BF981279BFF85378BFC58B77BF42
:1039000007BA76BFC6DE75BF0BFA74BFDD0B74BF96
:10391000471473BF521372BF080971BF73F56FBFAD
:103920009ED86EBF93B26DBF5E836CBF0C4B6BBFF6
:10393000A7096ABF3CBF68BFD86B67BF880F66BF67
:1039400059AA64BF5A3C63BF97C561BF214660BF97
:1039500005BE5EBF532D5DBF1A945BBF6AF259BFAF
:10396000534858BFE59556BF31DB54BF491853BF84
:103970003D4D51BF207A4FBF029F4DBFF8BB4BBF9B
:1039800012D149BF65DE47BF03E445BF01E243BF33
:1039900070D841BF67C73FBFF9AE3DBF3B8F3BBF4C
:1039A000426839BF233A37BFF30435BFC9C832BFB5
:1039B000BB8530BFDE3B2EBF4AEB2BBF159429BF22
:1039C000563627BF25D224BF996722BFCBF61FBF2B
:1039D000D17F1DBFC6021BBFC07F18BFD9F615BF60
:1039E0002A6813BFCDD310BFDA390EBF6B9A0BBF55
:1039F0009BF508BF824B06BF3D9C03BFE4E700BFB9
:103A0000275DFCBECBE0F6BEEA5AF1BEBBCBEBBEF7
:103A10007533E6BE4F92E0BE80E8DABE4136D5BED1
:103A2000CA7BCFBE53B9C9BE15EFC3BE491DBEBECA
:103A30002A44B8BEEF63B2BED47CACBE128FA6BE21
:103A4000E59AA0BE86A09ABE32A094BE229A8EBEEF
:103A5000938E88BEC07D82BECCCF78BE7F9A6CBE6E
:103A6000135C60BE011554BEC2C547BECF6E3BBEDF
:103A7000A2102FBEB5AB22BE834016BE87CF09BEB3
:103A800073B2FABD2FBCE1BD36BDC8BD80B6AFBDB7
:103A900004A996BD752B7BBD2EFB48BD2BC316BD5F
:103AA000B10AC9BC920E49BC0000008000000000B1
:103AB0006E83F9A22915444ED15727FCC0DD34F599
:103AC000999562DB4190433CAB6351FEEC3A0008B0
:103AD00000000020980000000C320008843B000821
:103AE00098000020081900001C32000800000000A7
:103AF00000000000000000000000000000000000C6
:103B000000000000000000000000803F0000803F37
:103B10000000803F00004041000000410000000024
:103B20000000000000000000000000000000000095
:103B30000000000000000000000000000000000085
:103B40000000000000000000000000000000000075
:103B50000000000000000000000000000000000065
:103B60000000000000000000000000000000000055
:103B70000100000010000000000000000024F4001C
:043B80000000000041
:040000050800018965
:00000001FF
